:020000041000EA
:1000000000B5324B212058609868022188439860DF
:10001000D860186158612E4B002199600221596106
:100020000121F02299502B49196001219960352056
:1000300000F044F80222904214D00621196600F024
:1000400034F8196E01211966002018661A6600F04E
:100050002CF8196E196E196E052000F02FF8012189
:100060000842F9D1002199601B49196000215960AB
:100070001A491B48016001219960EB211966A021F2
:10008000196600F012F800219960164914480160C1
:100090000121996001BC002800D000471248134993
:1000A000086003C880F30888084703B5996A0420EC
:1000B0000142FBD001200142F8D103BD02B5186610
:1000C0001866FFF7F2FF186E186E02BD00000240BE
:1000D000000000180000070000035F00212200005C
:1000E000F4000018222000A00001001008ED00E03C
:1000F00000000000000000000000000074B24E7A12
:1001000000200420F7010010C3010010C5010010F9
:10011000C1010010C1010010C1010010C101001097
:10012000C1010010C1010010C1010010C701001081
:10013000C1010010C1010010C9010010CB01001065
:10014000CD010010CD010010CD010010CD01001037
:10015000CD010010CD010010CD010010CD01001027
:10016000CD010010CD010010CD010010CD01001017
:10017000CD010010CD010010CD010010CD01001007
:10018000CD010010CD010010CD010010CD010010F7
:10019000CD010010CD010010CD010010CD010010E7
:1001A000CD010010CD010010CD010010CD010010D7
:1001B000CD010010CD010010CD010010CD010010C7
:1001C00000BE00BE00BE00BE00BE00BE00F04BF888
:1001D000103800BEF2EB887148DB001070DB0010B5
:1001E0003402001090A31AE700202149086006C8D5
:1001F00081F3088810471F48006800282FD10DA4FC
:100200000ECC002902D000F012F8F9E71A491B4A77
:10021000002000E001C19142FCD1194988471949E9
:1002200088471949884700BEFDE701C901C29A42C3
:10023000FBD3704770DB0010C0000020D805002001
:1002400088E00010000004200000042088E0001076
:1002500000100420001004200000000070470B482C
:1002600004F04EFF0047EFF30580C0B27047000076
:1002700008ED00E0000000D0D80500207418002030
:1002800001360010950B0010DD36001057560000A7
:1002900006005250ABB36053C8B500100600525070
:1002A000861C0302D8B50010060052505422A29DAD
:1002B000E4B5001005005250DE65F46888E00010D7
:1002C000F8B5C0460448054B10B5834203D0044B33
:1002D000002B00D0984710BDD8050020D80500207D
:1002E0000000000006480749091A8910CB0F591869
:1002F00010B5491003D0044B002B00D0984710BD17
:10030000D8050020D80500200000000010B5074CDB
:100310002378002B09D1FFF7D5FF054B002B02D026
:10032000044800E000BF0123237010BD38070020FF
:1003300000000000189F0010054B10B5002B03D0E3
:100340000449054800E000BFFFF7CCFF10BDC046E0
:10035000000000003C070020189F0010012800D07A
:100360007047094B9942FBD1084B0322DA703C21BC
:100370001970002199701976054959610221197483
:100380005A74044ADA61EBE7FFFF000034150020DD
:10039000C0040020A086010010B51A4806F04CF8F1
:1003A000194806F049F8194806F046F8184806F0CA
:1003B00043F8184806F040F8174806F03DF817488B
:1003C00006F03AF8164806F037F8164806F034F802
:1003D000154806F031F8154806F02EF8144806F0D6
:1003E0002BF8144806F028F8134806F025F81348AF
:1003F00006F022F8124806F01FF8124806F01CF822
:1004000010BDC0461C9F0010349F00104C9F001070
:10041000649F00107C9F0010989F0010B09F0010F8
:10042000CC9F0010EC9F001000A0001018A000103E
:100430002CA0001044A0001060A0001078A00010B4
:100440008CA00010E8A0001010B504001F2101F0DE
:10045000AFFE00220021200001F0C2FE002120009A
:1004600001F0D8FE10BD000070B582B00C4C200029
:1004700000F0E0FE061C200001F0FCF80500200062
:1004800001F016F90400301C05F0B0FD02000B006D
:1004900001940095034805F0FFFF02B070BDC0460F
:1004A000D805002090A1001000B583B06946064829
:1004B00001F01EF9002801D103B000BD69460348D0
:1004C00001F038FEF8E7C046D805002054070020A8
:1004D00070B5A2B00400012303930023029301939B
:1004E000344B0093052300220021334809F052F8D1
:1004F0002100324800F034FF314805F09DFF6420B0
:1005000002F07CFC20AD04AC2C4E3100200001F048
:1005100017F92B0006CC06C3300000F08BFE05F067
:1005200065FD02000B00274805F0B6FF300000F023
:1005300081FE05F05BFD02000B0007AC22492000A4
:1005400004F0B2FD0123039300230293019300946E
:10055000023300220021184809F01CF82B78002BE8
:10056000CDD02199002914D0184805F095FF01231A
:100570000393002302930193154B0093052300225C
:1005800000210D4809F006F8124801F0CDFD22B017
:1005900070BD114805F050FF01230393002302931F
:1005A00001930E4B0093052300220021024808F01E
:1005B000F1FFE9E764A2001034150020D8050020FF
:1005C00074A2001080A2001090A20010D0A200100F
:1005D000E0A2001054070020A8A20010B8A200104A
:1005E000F0B5A1B0314C1EA9200001F0C4FD2200DD
:1005F000083205AD2E49280004F056FD0127039767
:100600000026029601960095032300220021294826
:1006100008F0C0FF22001A322749280004F044FDE8
:100620000397029601960095042300220121214898
:1006300008F0B0FFB723E55C2900204805F02CFF47
:10064000002D2DD01E4805F027FF0024AC4223D2F8
:10065000164B1B199E331878431EDBB2CB2B15D8D3
:1006600005F09AFC174905F052FC174905F034FCD7
:1006700005F0BCFC02000B00144805F00DFF01342E
:10068000AC42E3D2124805F007FFDFE7114B124AF4
:10069000DE21124803F026F8114805F0CDFE02E0F5
:1006A000104805F0C9FE21B0F0BDC0465407002037
:1006B000B4A0001034150020C8A00010ECA0001059
:1006C000FCA00010CDCCCC3D0000AF4264A10010D6
:1006D0006CA1001004A10010F8A2001024A10010C9
:1006E00070A10010E8A0001030B59FB0041C164D9A
:1006F000011C280001F05EF8280000F09BFD05F0C9
:1007000075FC02000B00114805F0C6FE104801F010
:100710000BFD201C05F06AFC02000B0005AC0D4926
:10072000200004F0C1FC01230393002302930193F2
:100730000094023300220021074808F02BFFFFF746
:100740004FFF1FB030BDC046D805002084A2001066
:1007500054070020A0A000103415002070B5A2B0EE
:10076000002005F0ABFE0400431C38D1BF4800F068
:1007700057FD002800D075E1D0231B065B68DB061F
:1007800000D5D8E1BA4B1B78002B00D190E1B94BD2
:100790001B780A2B00D891E1B44800F02FFF0130FC
:1007A000C4B20F2C00D900242100B04800F02AFF69
:1007B00007AE2200B049300004F076FC0125039515
:1007C0000024029401940096072300220021AB48E4
:1007D00008F0E0FEA74B1C70A94B1D706EE1A3480A
:1007E00000F01EFD002800D12BE1E3B22D2B30D00C
:1007F0003D2B44D01A00313AD2B2052A56D97B2B70
:100800005DD07D2B72D05B2B00D186E05D2B00D1BB
:1008100087E03C2B00D188E03E2B00D19CE0302BC0
:1008200000D1B0E0662B00D1BFE06D2B00D1CEE04F
:10083000622B00D1DDE0692B00D1ECE0722B00D1FE
:10084000ECE0782B00D1ECE03F2B8FD1FFF7A4FD3B
:100850008CE7864800F0D2FE002887D0834C200029
:1008600000F0CCFE0138C1B2200000F0CBFE200029
:1008700000F0C4FE0100834805F00EFE76E77B48D9
:1008800000F0BCFE1D2800D970E7784C200000F075
:10089000B5FE411CC9B2200000F0B4FE200000F0FB
:1008A000ADFE0100774805F0F7FD5FE7FF231C4030
:1008B000313CA400744BE058FFF716FF56E76B4C31
:1008C000210004A800F0B0FC200000F0B3FC069961
:1008D00005F0FDFA041C011C049805F057FB0028E4
:1008E00000D0059C201CFFF7FFFE3FE75F4C210076
:1008F00004A800F099FC200000F09CFC069905F08B
:10090000EBFA041C0598211C05F03AFB002800D0E6
:10091000049C201CFFF7E8FE28E70020FFF7D8FD25
:1009200024E70120FFF7D4FD20E7504800F0DEFC6B
:10093000002800D11AE74D4C200000F0D7FC411EE2
:10094000C9B2200000F0D4FC200000F0CFFC010070
:100950004E4805F0A1FD09E7444800F0C7FC0E2809
:1009600000D903E7414C200000F0C0FC411CC9B293
:10097000200000F0BDFC200000F0B8FC010043485E
:1009800005F08AFDF2E6394C200000F037FD012128
:100990004140C9B2200000F035FD200000F02EFDDE
:1009A00001003B4805F078FDE0E6304C200000F007
:1009B00065FD01214140C9B2200000F063FD200027
:1009C00000F05CFD0100334805F066FDCEE6274CE3
:1009D000200000F0D3FD01214140C9B2200000F009
:1009E000D1FD200000F0CAFD01002B4805F054FDA8
:1009F000BCE61E4C200000F081FD01214140C9B23F
:100A0000200000F07FFD200000F078FD0100234869
:100A100005F042FDAAE6FFF727FDA7E6FFF7E0FD98
:100A2000A4E6124800F0FCFB002800D19EE61C481A
:100A300005F002FD0D4801F02FF81A4801F074FB93
:100A400094E6194805F0F8FC21AB184A1188198082
:100A500092789A7020AB19809A702099034800F020
:100A6000E3FE83E6FFF720FD86E6C046D8050020BA
:100A7000A5150020A415002038A200103415002070
:100A8000AA150020B0A1001078A10010C0A100108C
:100A9000D8A10010E8A10010FCA100100CA20010C9
:100AA00020A20010540700202CA20010189F001054
:100AB0002D4B01221A702D4B00221A702B4A1378ED
:100AC00001331370FFF78CFD294B1A6880235B01FB
:100AD0005340E022D2011340264A1360264B0422E1
:100AE0001A60234B1B68DB05FBD5214B5C68240493
:100AF000240C07AD22002149280004F0D5FA012377
:100B000003930023029301930095063300220021F2
:100B10001B4808F03FFD1B4AA4230821D1501A4B63
:100B20001B685C402404240C184B1C60282002F035
:100B300065F922B070BD0C4B1B78002BC2D00A4B5C
:100B400000221A70124B1B78002B05D0104B1A7024
:100B5000064B00221A70B5E7044B1B78312BF7D8EF
:100B60000120FFF7B5FCF3E7A5150020A415002030
:100B700000C0044000D0044000E0044050A2001037
:100B8000341500200000054048000540481005408D
:100B9000AA150020F0B587B005F08AFCFFF7FCFB32
:100BA00009F032F91A20FFF74FFC1B20FFF74CFC2D
:100BB0000421062001F0FCFA394BA42208219950A7
:100BC0000025DD635D649D64364ADA6440221A6460
:100BD0000127DF63042001F035FBD0231B06102220
:100BE0009A6200220121042001F0FAFA2E4C2F49CA
:100BF000200001F0E5F82E4E009703230222210089
:100C0000300000F0F0FAFA20400002F0F7F8294C2A
:100C1000217EE269200008F0C7FB2749200009F087
:100C2000F0F801220021200009F0A8F8FF2120009F
:100C300008F09EFC039702950195204B009300233A
:100C40001E220021200008F0A5FC039702950195C3
:100C50001B4B0093012300220021200008F09AFC86
:100C600005AB184A1188198092789A7004AB1980E4
:100C70009A700499300000F0D7FD1349300000F05D
:100C800099FD0121300000F0BDFC0021300000F092
:100C9000B9FB0E4801F048FAFFF760FDFCE7C046DB
:100CA00000000540FFFF0000C0040020A0860100F6
:100CB000D8050020341500200C08002028A30010BF
:100CC00034A30010189F00106666B9425407002034
:100CD00010B502490120FFF741FB10BDFFFF0000E6
:100CE000012915D0002908D0022916D0032919D0CE
:100CF000124B0360124B436003E0124B0360124B34
:100D00004360002A13D0012A14D0104B836010E0F6
:100D10000B4B03600E4B4360F3E7094B03600A4B38
:100D20004360EEE70B4B0360054B4360E9E70A4B7A
:100D300083607047094B8360FBE7C0460000824236
:100D4000000098420000AE420000D842CDCC4C3D9D
:100D50000000B64200004842CDCC4C3ECDCCCC3D4C
:100D600010B584B001910393039C05F015F9211C83
:100D700005F0CDF8019905F0AFF804B010BD0129D8
:100D800010D0002907D0022911D0C3880322934331
:100D90001343C38005E0C388032293430122134316
:100DA000C3807047C38803229343C380F9E7C38895
:100DB0000322934302221343C380F2E7012915D093
:100DC00000290ED0022918D003291DD0C3880C2277
:100DD00093431343C380C28980239B001343C38181
:100DE00003E0C3880C229343C3807047C3880C225E
:100DF000934304221343C380F7E7C3880C22934331
:100E000008221343C380F0E7C3880C2293431343A3
:100E1000C380C389014A1340C381E6E7FFFDFFFF9A
:100E2000F0B587B0072A03D85500043100230DE040
:100E30000E4B0F4A62210F4802F054FC0E885C1CD6
:100E400002AA370AD754165502330231AB42F5D302
:100E5000002300932B0002AA102100F0DDFF281AC6
:100E600045426841C0B207B0F0BDC0469CA6001024
:100E700084A30010A4A6001010B5931EDBB2062BAD
:100E800003D8013AFFF7CCFF10BD034B034A722190
:100E9000034802F027FCC046D8A6001098A3001013
:100EA000A4A6001000B585B0931E062B15D8022A03
:100EB00019D05300CB5A03A90A701A0A4A708B70D2
:100EC0000023009303330A00112100F0A5FF03382B
:100ED00043425841C0B205B000BD054B054A7921D7
:100EE000054802F0FFFB013AFFF79AFFF3E7C0461F
:100EF000D8A60010B4A30010A4A6001070B586B048
:100F00000C00062A0CD8560000230093330003AAD5
:100F1000102100F08DFF864208D0002006B070BD81
:100F20000B4B0C4A48210C4802F0DCFB2100143129
:100F3000002308E05D1C03AAD45C2402505D023348
:100F4000204308800231B342F4D30120E6E7C046D3
:100F5000C0A5001058A30010A4A6001010B51300DF
:100F60000A3BDBB2052B03D8093AFFF7C7FF10BDD8
:100F7000024B034A5B21034802F0B4FBC8A50010F2
:100F80006CA30010A4A6001070B584B006000D007C
:100F900014000F2A0FD80A2A13D003AA00231380A3
:100FA000147001330093112100F036FF01280CD09A
:100FB000002004B070BD104B104A8621104802F08A
:100FC00091FB0122FFF79AFFF3E703AA00231370B6
:100FD000009302331121300000F02AFF022801D0D3
:100FE0000020E6E703A90A7812024B781343640055
:100FF0002B530138DDE7C046DCA50010D0A300105C
:10100000A4A60010F0B5C64600B505000C002B4B99
:10101000896C994213D14C23E35C012B16D12668CD
:1010200027002637002A26D10A3239003000FFF780
:10103000ABFF638F5B0410D5002398461EE0A72109
:101040001F4B204A4900204802F04CFB50211F4B07
:101050001C4AFF311C4802F045FB01F06BFF1C4AA3
:10106000002380185941206561650822002128006D
:1010700005F09EF81DE001235B429846A38D1022E7
:101080009343A3850D3A39003000FFF70BFF0A2286
:1010900039003000FFF778FF608F8005800DE16830
:1010A00022696369FFF75CFEE06101232B70434610
:1010B0006B60280004BC9046F0BDC04605100010CF
:1010C00050A6001020A40010A4A6001084A60010B2
:1010D00088130000F0B5C64600B505000C00324B81
:1010E000896C994215D14C23E35C012B18D12668F9
:1010F00027002637002A30D10A3239003000FFF7A6
:1011000043FF608F430412D5830449D400239846DB
:1011100026E09C21254B264AFF31264802F0E2FAC0
:10112000CE21254B224A4900224802F0DBFA8005F5
:10113000800DE16822696369FFF712FEE06101F04A
:10114000F9FE1E4A00238018594120656165082276
:101150000021280005F02CF81EE001235B42984690
:10116000638D174A134063850432FF323900300023
:10117000FFF798FE0A2239003000FFF705FF608F65
:101180008005800DE16822696369FFF7E9FDE06190
:1011900001232B7043466B60280004BC9046F0BDD1
:1011A00001235B429846DBE7D5100010F0A5001044
:1011B0006CA40010A4A6001084A60010400D03002B
:1011C000FFFEFFFF00B585B001910393019904F084
:1011D0007EFE039904F085FE04F090FF04F0FEFE0D
:1011E00080B205B000BDF0B5C64600B50400884623
:1011F00017001E0006AB1D7806305222002104F0B5
:10120000D7FF4346236027716671A57108232376B3
:10121000073B2122A3540132A35404BC9046F0BDE5
:10122000438D01201840704730B50C31030034C99C
:1012300034C330BDC069704770B504000E1CFFF7A1
:10124000EFFF002835D0A36C002B39D1E568311CA5
:10125000281C04F095FE002800D0351C2669291CA6
:10126000301C04F093FE002831D125002635E168BA
:1012700022696369301CFFF7A5FFA28D3F2313404D
:101280008001184380B210231843A085032229004F
:101290002068FFF707FE0F4BA3644C230122E254A2
:1012A00001F048FE0C4A0023801859412065616511
:1012B00070BD6A21094B0A4AFF310A4802F012FA4E
:1012C000B521094B064A4900064802F00BFA2E1CCC
:1012D000CBE7C04605100010881300001CA60010C4
:1012E0003CA40010A4A6001034A60010007E704795
:1012F00070B504000E00FFF793FF002818D0A36C10
:10130000002B1CD1351C0F2E00D90F25EBB2227EED
:101310009A420CD021002631228E0C4802401B023A
:101320001343238605222068FFF7BCFD257670BD98
:101330008021074B074AFF31074802F0D3F9C0214B
:10134000064B044A4900044802F0CCF9FFF0FFFFC5
:101350001CA6001054A40010A4A6001034A600106F
:1013600070B504000D00FFF75BFF002824D0A36CCC
:10137000002B28D121002631638D80229343638581
:10138000012D27D0164A13406385628D80235B00B0
:101390001343638502222068FFF784FD114BA36489
:1013A0004C230122E25401F0C5FD0F4A00238018AE
:1013B00059412065616570BDBE210C4B0C4AFF315F
:1013C0000C4802F08FF9DF210B4B094A490009480C
:1013D00002F088F98132FF3213436385D5E7C046B6
:1013E000FFFDFFFFD5100010400D03001CA60010EC
:1013F00080A40010A4A6001034A600102123C05C15
:101400007047000070B504000D00FFF709FF0028C9
:1014100016D0A36C002B1AD12123E35CAB420ED073
:1014200021002631002D19D1628D8023DB01134369
:10143000638502222068FFF735FD2123E55470BD46
:10144000E821094B094A4900094802F04BF9D22129
:10145000084B064AFF31064802F044F9638D064AFC
:1014600013406385E5E7C0461CA6001090A4001059
:10147000A4A6001034A60010FFBFFFFF2223C05C0B
:101480007047000070B504000D00FFF7C9FE00288A
:1014900016D0A36C002B1AD12223E35CAB420ED0F2
:1014A00021002631002D19D0E28D80239B001343AB
:1014B000E38504222068FFF7DFFC2223E55470BD9A
:1014C000E221094B094AFF31094802F00BF9F121E9
:1014D000084B064A4900064802F004F9E38D064A23
:1014E0001340E385E5E7C0461CA600109CA400104D
:1014F000A4A6001034A60010FFFDFFFF2323C05C4C
:101500007047000070B504000D00FFF789FE002849
:1015100016D0A36C002B1AD12323E35CAB420ED070
:1015200021002631002D19D0628D80235B011343E9
:10153000638502222068FFF7B5FC2323E55470BDC4
:10154000F921094B094A4900094802F0CBF8F42176
:10155000084B064AFF31064802F0C4F8638D064A7C
:1015600013406385E5E7C0461CA60010ACA400103C
:10157000A4A6001034A60010FFEFFFFF2423C05CD8
:101580007047000070B504000D00FFF749FE002809
:1015900016D0A36C002B19D12423E35CAB420ED0F0
:1015A00021002631002D18D0628D80239B0113432A
:1015B000638502222068FFF775FC2423E55470BD83
:1015C000084B094A09490A4802F08CF88121094B65
:1015D000054A8900064802F085F8638D064A1340E3
:1015E0006385E6E71CA60010C0A4001003020000FB
:1015F000A4A6001034A60010FFDFFFFF2023C05C6C
:101600007047000070B504000E00FFF709FE0028C7
:1016100019D0A36C002B1DD1351C0F2E00D90F251E
:10162000EAB22023E35C93420CD021002631238EC2
:101630000F2083431343238605222068FFF732FCE3
:101640002023E55470BD8521054B064A89000648D4
:1016500002F048F8054B034A0549034802F042F8F6
:101660001CA60010CCA40010A4A6001034A60010E4
:101670001502000010B50400FFF7D2FD002808D0C5
:10168000210026310B222068FFF77EFCA08F400A44
:1016900010BD034B034A0449044802F023F8C04636
:1016A0001CA60010DCA4001022020000A4A600105A
:1016B00010B50400FFF7B4FD00280AD02100263140
:1016C0000A222068FFF760FC638F9B0A0120184004
:1016D00010BD034B034A0449044802F003F8C04616
:1016E0001CA60010E8A400102B020000A4A6001005
:1016F00070B505000E00FFF793FD041E0CD00F22FD
:10170000290026312868FFF729FC3A22AB5E002B1E
:1017100009DB0024200070BD8D21064B064A89009C
:10172000064801F0DFFF29003E310822300004F0B6
:1017300045FDEFE71CA6001000A50010A4A60010B0
:1017400030B583B005000C008B6C002B1CD001F071
:10175000F1FB226D636D8B421ED81BD0002221004D
:101760006846A36C98476B461B78002B05D0200079
:1017700048301022002104F01BFD6B462A0003CBE9
:1017800003C2280003B030BD064B074A074908488A
:1017900001F0A8FF8242E1D908220021280004F0CC
:1017A00007FDEEE740A5001014A50010410200005F
:1017B000A4A6001030B583B004000D1CFFF730FD67
:1017C00000280AD0A36C002B0ED1291CE06904F07C
:1017D000CFFB00280FD003B030BD40210E4B0F4A85
:1017E000FF310F4801F07EFFA0210E4B0B4A49004C
:1017F0000B4801F077FF291C2000FFF71DFD052095
:1018000001F0FCFA21006846FFF79AFF6B461B784F
:10181000002BF4D0DFE7C0461CA6001004A4001083
:10182000A4A6001034A60010F0B589B006000791F8
:10183000FFF7F6FC002800D0BCE007ACF01D032247
:10184000210004F0BBFC27786378019302AC1A00F6
:1018500039002000FFF744FA33000C3307CC07C3EC
:1018600035683079032100F0A3FC7079032100F082
:101870009FFCB379002B00D0A2E034002634202254
:101880000021200004F094FC002221002800FFF732
:101890007BFB002800D19EE0F28C634B9A4200D083
:1018A0009CE003237385022221002800FFF7FAFA47
:1018B000052001F0A3FA01237385022221002800EC
:1018C000FFF7F0FA052001F099FA03222100280021
:1018D000FFF75AFB042221002800FFF755FB0522E1
:1018E00021002800FFF750FB062221002800FFF707
:1018F0004BFB072221002800FFF746FB08222100AE
:101900002800FFF741FB738D042213430822134381
:1019100073852322B25C002A00D165E08022520147
:10192000134373852423F35C002B61D0728D8023D5
:101930009B01134373852123F35C002B5DD1728DD2
:101940008023DB0113437385728D384B13437385FA
:10195000B28D3F231340B3852223F35C002B51D07B
:10196000F28D80239B001343F38507AB9B78012BFB
:101970004DD0F38D2E4A1340F385338E0F229343BF
:101980001132B25C1343338639002000FFF716FA98
:1019900001992000FFF7F3F9082221002800FFF742
:1019A0006BFAF4690021201C04F0E2FA002834D01C
:1019B00009B0F0BD1F4B204AE421204801F092FEFF
:1019C00030790022012100F00BFC70790022012106
:1019D00000F006FC51E71A4801F0A2FE194B164A26
:1019E000F821164801F07EFE174A1340738599E7E7
:1019F000738D164A134073859DE7738D144A134007
:101A00007385A1E7F38D134A1340F385ADE7F28D9B
:101A100080231B011343F385AFE70023F361211CEF
:101A20003000FFF7C7FEC3E7045800000080FFFF47
:101A3000FFF7FFFF5CA50010E8A30010A4A60010AC
:101A400078A50010ACA50010FFEFFFFFFFDFFFFF40
:101A5000FFBFFFFFFFFDFFFF10B582B00400836CE6
:101A6000002B0BD001220100684698472000483027
:101A70001022002104F09CFB02B010BD024B034A6F
:101A80000349044801F02EFE40A5001028A50010CF
:101A90004F020000A4A6001010B50400FFF7C0FB21
:101AA000002810D0A36C002B02D02000FFF7D4FF39
:101AB00021002631638D0122934363852068013222
:101AC000FFF7F0F910BD2421024B034AFF31034810
:101AD00001F008FE1CA60010F4A30010A4A600103C
:101AE000F0B5DE4657464E464546E0B583B00600A3
:101AF00010000CAA127892460D9D32680024D4661C
:101B00003268516032680121D1669846002700236F
:101B10009B4622E03279002A28D0012226E0514655
:101B2000002901D0002125E0012123E0526D01248C
:101B3000002D04D00E98A84703000443E4B2002B04
:101B400003D13268526B9205F2D5002B01D1326875
:101B5000126E002C33D10137019847452FDA01224C
:101B6000524242449146002FD4D000229202B945FD
:101B7000D5D0002149020A43411C01910078316807
:101B800002430A61002D04D00E98A84703000443C5
:101B9000E4B2002B03D13268526BD206F2D5002B8F
:101BA000D7D13268802151588B460029BED1002CF4
:101BB000BED1B945CDD15246002ACAD1B8E7002CD2
:101BC00009D0002B14D15B46002B14D0DB0715D4B1
:101BD0005B461B0709D553463371380003B03CBC44
:101BE00090469946A246AB46F0BD02277F42F2E7F7
:101BF00001277F42EFE702277F42ECE702277F427F
:101C0000E9E7F0B5DE4657464E46C0B505009146B9
:101C100008AA12789346099E02680020D0662A68B6
:101C200051602A680121D1669A46002700230024CA
:101C300015E0297900291DD001211BE05846002814
:101C400001D000201AE0012018E0002C31D12A68D0
:101C5000126949460A70013701229446E14457450A
:101C600027DA5246501E2A68516F1029FBD0002FE8
:101C7000DFD000218902B842E0D0002040020143B9
:101C800080204000014311612A6880215158546D21
:101C9000601E8441E4B2002E04D00A98B0470300CD
:101CA0000443E4B2002CD0D12A68926F002AEBD012
:101CB000CBE7002C03D0002B09D001277F425B46E5
:101CC0002B7138001CBC91469A46A346F0BD0227F2
:101CD0007F42F4E7F0B5D646474680B583B00500AD
:101CE0000C00052001F032FE06006008801921007A
:101CF00003F05AFA804647003B0043440193052114
:101D0000180003F051FA070043461B1A9A46264B67
:101D10009C423AD870008019244903F045FA441CCB
:101D2000BB1EA34238D32B680022DA6629680A68F2
:101D30000423534006221A4080235B010B431A60A0
:101D40002B685246DA612B681F620F2F2AD9502167
:101D5000019803F029FAA0232A68D0502A681100BC
:101D60007C31D06F44402404240C80235B010B435E
:101D70001C602B680122DA664146300003F014FA39
:101D800003B00CBC90469A46F0BD7000801908491B
:101D900003F00AFA441CC3E7064B074A5F210748D1
:101DA00001F0A0FC0120D6E73F420F00809698008A
:101DB00040787D0114A7001000A7001034A7001080
:101DC00010B5114B98421CD01022104B1A60104BCA
:101DD0001A60104B9B6814009C43231EF9D10471B8
:101DE0000268D46602686624FF3414600268D36314
:101DF00002689363883303220468E250FFF76AFFA6
:101E000010BD0822E1E7C046B804002000E0004011
:101E100000F0004000C0004030B585B008AC257827
:101E20000024029401940095FFF75AFE05B030BDDE
:101E300030B585B008AC2578002402940194009553
:101E4000FFF7DFFE05B030BDEFF3108072B6034B35
:101E50001B68002BFBD0BFF35F8F70472C0100D0B5
:101E6000BFF35F8F024B00221A6080F31088704727
:101E70002C0100D070B505000E001400FFF7E4FF40
:101E8000F208AA1815780721314001238B402B4214
:101E900005D1DBB22B431370FFF7E2FF70BD3100B9
:101EA000200001F03DFCF0B583B007000191140063
:101EB0001E00FFF7C9FFB4420ED8E208BA18157821
:101EC0000721214001238B402B4201D00134F2E74E
:101ED000DBB22B43137001E001246442FFF7C0FF23
:101EE000002C02DB200003B0F0BD019B002BF9D0D9
:101EF000089801F015FC0000034B1B6802201840F5
:101F0000431E9841C0B2704700C00640002307E05E
:101F1000054A9A189200BFF35F8F002111600133C8
:101F20001F2BF5D97047C04640000034054A107891
:101F3000431CDBB21370172B02D9130010221A7046
:101F40007047C046C804002000B583B00100044BB0
:101F500000931F2318220348FFF7A5FF03B000BD1D
:101F600070A7001094100020008870474088000B74
:101F700070474388DB0A01201840704743889B0A5A
:101F800001201840704743885B091F2018407047A4
:101F900010B54B8803249C439B0801211940012262
:101FA000A240C37993435BB2A1400B43DBB2C37140
:101FB000002C00D1837110BD10B54B1EDBB2CB2BB2
:101FC00013D8B723C45C192C0FD000239C4206D928
:101FD000C2189E3212788A4207D00133F6E7621C9B
:101FE000B723C25400199E30017010BD70B50500B2
:101FF0000C000800FFF7BDFF002800D070BDA488CA
:10200000210AE4B22800FFF7D7FF21002800FFF7DC
:10201000D3FFF3E770B54B8803221A405300C988F9
:102020000D0AC41865740133C3185974032A00D00B
:1020300070BD03000833010011310532180004F0AF
:10204000BDF8F5E770B504000D00FFF7E3FF2900C8
:102050002000FFF79DFF29002000FFF7C7FF70BD9C
:1020600030B583B004000D000800FFF782FF6A88D6
:102070000F231340120901210A409C3162540028A9
:102080001AD1A98801AA080A10705170E988080AB3
:102090009070D1709B0004250022954219D901A9A6
:1020A000895C0D2910D0581CE3185B331970402847
:1020B0001FD001320300F0E7E98801AA080A107076
:1020C00051705B000225E7E7E3185B3300221A70CA
:1020D00002E00023002B0AD020001A3021005B31DF
:1020E000402204F06BF89D23E25C013BE25403B014
:1020F00030BD0123EEE7000010B50F2804D80928F1
:1021000008D93730C0B210BD044B054A0F2105482D
:1021100001F0E8FA3030C0B2F5E7C04698A70010E9
:102120008CA70010A4A7001010B5B822002104F05D
:102130003FF810BD70B505000C000800FFF714FF54
:1021400028802000FFF71FFFA8702000FFF716FF70
:10215000E8702000FFF70AFF002802D0022805D00F
:1021600070BD21002800FFF76DFFF9E7210028006E
:10217000FFF776FFF4E770B506000C000088000B4F
:10218000FFF7BAFF20703088000A0F252840FFF7BC
:10219000B3FF6070308800092840FFF7ADFFA070E2
:1021A00030782840FFF7A8FFE0700023237170BD4E
:1021B00010B58300084A944663441C68402262407C
:1021C000C02414408022520113431C60C000034B02
:1021D0009C466044416010BD04C001400040014085
:1021E00080000B4B9C46604400290DD00823002A38
:1021F0000CD100221343026853400C22134080226A
:1022000052011043036070470023F0E70422F1E716
:1022100004C00140002909D18000094B9C4660445C
:10222000C0239B0118434023036070478000044B88
:102230009C46604480239B01184340230360F4E7DD
:1022400004C0014010B501238340D02212069362DE
:1022500093610521FFF7ACFF10BD000070B50500CC
:102260000C00062001F072FBC000210002F09CFF70
:10227000C60908D00E4B9E4217D87F231840013064
:102280003400460800E001246C62AE622C358023E5
:102290009B011D4300232B60062001F057FB8000AB
:1022A000A101891902F080FF70BD0026014CEBE707
:1022B000FEFF0000FFFF000000290AD1802252002B
:1022C000054B9C466044434258414000034BC25278
:1022D00070470A22F4E7C0460080FCBFAC1500201E
:1022E00070B505000C00062001F030FB00282DD051
:1022F000174B9D4227D08022D203164B1A60164BF3
:102300001A60164B9B6811009943FAD100212800EE
:10231000FFF7D2FF21002800FFF7A0FF2C002C348C
:10232000E96A60224A406E21114080225201224314
:1023300011600B4B2B6380239B01234310221A60F7
:102340000323AB6470BD80221204D6E70020F9E7B6
:102350000080034000E0004000F0004000C000406A
:102360000103000070B505000C00080000F0D6FD68
:10237000200000F0DFFE0849200000F01FFEFFF7FC
:10238000D5FD064B9C466044800068602C75A40017
:10239000034BE55070BDC046B1260010400000342C
:1023A000581500200A4B1A68EFF3108172B61368B3
:1023B000002BFCD0BFF35F8F054B1B68BFF35F8F13
:1023C00000221A6081F3108840BF0020002170476E
:1023D0007015002010B5002922D003681B7B99429C
:1023E0001ED8174B9C466144090183689C46614492
:1023F0000C684968002A19D003681B7B9A4215D8DB
:1024000083680F488446624412019A181068536822
:10241000020001208B4201D80ED00020C0B210BDB6
:10242000084B094A3B21094801F05CF9054B064A73
:102430003B21064801F056F9A242EFD8EDE7C0462D
:10244000FFFFFF0FE8A9001030A80010E8AA001055
:1024500010B500291FD0037B99421CD84B005B1894
:10246000033B0468A446634400291AD0002A1ED006
:10247000914222D0002A26D0047BA24223D80468AD
:10248000500080180338201881701978002920D056
:1024900041701A7010BD104B104A6921104801F0AC
:1024A00021F9104B104A70310D4801F01BF90F4B08
:1024B0000D4A71210A4801F015F90D4B0A4A7221A3
:1024C000074801F00FF9044B044A6921044801F060
:1024D00009F91A70DEE7C04640AA0010F0A7001004
:1024E0005CAA0010A4AA0010FCA70010B0AA00105B
:1024F000BCAA001070B506000D00140000290BD016
:10250000002A12D0806873689847002806D12A00F4
:1025100021003000FFF79CFF200070BD2200290041
:102520003000FFF795FF2C00F6E70C00F4E7000001
:1025300070B5CE4600B583B00500009201930AAB9A
:102540001C780BAB1B789946002C28D003685A7B6B
:10255000944209D10123002B1BD1002C3DD1200036
:1025600003B004BC914670BD002C0CD01A7B944281
:1025700009D81A6863001B19033BD3189B78002BFA
:10258000E9D00123E7E73F4B3F4A69213F4801F08B
:10259000A9F83F4B3F4A65213F4801F0A3F8036883
:1025A0009C7B002CD9D012D01A7B94420FD86200A9
:1025B0001219033A19688C466244517899730029BC
:1025C00000D1D9730023937053701370C5E72D4B5E
:1025D0002D4A69212D4801F085F8002C3BD02B684D
:1025E0001B7B9C4237D82D4BE3181B01AA689446ED
:1025F00063440099019A19605A60089A9A60099A8E
:10260000DA602E68002C2CD031D0337B9C422ED83F
:1026100063001B19033B32689446634400229A709E
:102620005A701A70717B22003000FFF763FF7073DD
:10263000844200D093E7287D009A019B00F006FDBC
:10264000061E02D04B46002B17D00C9B002B00D14E
:1026500085E71E7083E7124B124A3B210E4801F0BA
:1026600041F8114B114AA621084801F03BF8054BEF
:10267000054A6921054801F035F82868210000F075
:1026800043FFE2E740AA0010F0A700105CAA001088
:10269000B4A8001068A80010E8AA0010FFFFFF0F00
:1026A000E8A9001030A80010E4AA001010A800103B
:1026B000F0B5DE4657464E464546E0B58BB009902C
:1026C0008200BA4BD7583D00A3E0B94BB94A3D212F
:1026D000B94801F007F8B94BB94A3B21B94801F0B4
:1026E00001F8002B02D1002A00D0BCE00021604696
:1026F00000F000FFA04219D1326873680692079378
:10270000B3689946F3689A464B46002B14D0002CC8
:1027100018D02B681B7B9C4214D8631EEA68D35CDC
:1027200008931B02184328610020A4E0A64BA74A87
:102730008C21A44800F0D6FFA54BA44A9021A148C3
:1027400000F0D0FF9D4BA34A40219E4800F0CAFFF5
:1027500000239A46994600208DE02B69002B00D17A
:10276000A9E043451CD1069A079B10001900921B53
:10277000BB41994202D804D1904202D9012252426F
:10278000D317002B12DB0021049101310391029435
:1027900051460191494600912800FFF7C9FE30E0FB
:1027A0008D4B8A4A9F21874800F09CFF804B814ACD
:1027B0003D21814800F096FF002F02D1002E00D06D
:1027C0007CE02A68002C00D1C7E0537B9C4200D0FB
:1027D000ACE00123002B00D0BFE0D37B002B00D066
:1027E000C1E0D473002C00D1D0E02B681B7B9C424D
:1027F00000D9CBE0013CEB689C466444237801336C
:10280000237000232B616A68BFF35F8F13608BF323
:10281000108800F08FFB002900DA56E7002300241F
:10282000069307946A68EFF3108772B61368002B5B
:10283000FCD0BFF35F8F2B689C465C7B002C87D05D
:1028400000D148E71B7B9C4200D944E7634BE61864
:102850003601AB689846464432687368121A8B4159
:10286000002B00DC3DE732687368099800F0EEFB4E
:1028700000239A4699466B68BFF35F8F00221A6067
:1028800087F310884B46002B00D185E0089B1B0284
:102890002343984651461800C84706000F006A684F
:1028A000EFF3108B72B61368002BFCD0BFF35F8F71
:1028B000002F00DA51E7002F00DC7DE72B69002BA9
:1028C00000D17EE743451FD100F034FB02000B1E10
:1028D00020DB0100180092197B41984202D804D1F4
:1028E000914202D901225242D317002B18DB00215A
:1028F000049101310391029451460191494600919E
:102900002800FFF715FE7CE7334B304AA2212D4803
:1029100000F0E8FE264B274A3D21274800F0E2FE62
:10292000234B244A3D21244800F0DCFE002C0ED02D
:10293000137B9C420BD863001B19033B11688C4628
:1029400063449B78002B00D144E7012342E7244BEA
:10295000244A6921244800F0C5FE244B244AF7216B
:10296000214800F0BFFE002B0AD0117B8B4207D814
:102970005900CB18033B11688C4663445C7030E708
:10298000174B184A6921184800F0ACFE0B4B114A4E
:1029900040210C4800F0A6FE002800D039E70BB01B
:1029A0003CBC90469946A246AB46F0BD5815002067
:1029B000DCA80010D8A70010F8A80010E8A90010A3
:1029C00030A80010E8AA00103CA9001080A8001050
:1029D00054A900103CA8001060A90010FFFFFF0FD1
:1029E00040AA0010F0A700105CAA00109CA90010DB
:1029F00020A8001010B50A4B5B68002B04D00A21F8
:102A0000084800F0B7FB10BD054C2300064A102112
:102A1000206800F08DFC03212000FFF7A3FCEEE707
:102A2000CC04002070150020D523001010B5064BF3
:102A30005B68002B01D0044810BD044B044A5C21A4
:102A4000044800F04FFEC046CC0400201CAA001031
:102A500050A80010E8AA0010F0B5DE4657464E46D2
:102A60004546E0B589B0804616001F00129B994686
:102A700014AB1B789A461F236B4400221A7033E074
:102A800000280AD042461268127B904205D8421EA6
:102A90004146C9688A5C934646E0434B434A40211D
:102AA000434800F01FFE32003B00361BAF41BB42E3
:102AB00002D804D1B24202D901267642F717002F7C
:102AC00012DA3C4B3C4A3D213C4800F00BFE394BAE
:102AD000394A3D21394800F005FE01246442E517DA
:102AE000002D4EDB26002F0043465B68EFF3108578
:102AF00072B61C6862425441E4B2002CF9D1BFF3B3
:102B00005F8F1F236B440493002303930293139B53
:102B100001934B46009332003B004046FFF708FD0F
:102B2000031EADD10022934641464968BFF35F8F33
:102B300000220A6085F31088002B28D01F236B44E5
:102B40001B78002B02D15A4614020443002B20D0DC
:102B50005346002B1DD013992000C84704000D00D8
:102B600003000B431DD000299DDB00F0E3F9002991
:102B7000ADDB24184D41A942AFD8B1D1A042AFD9A5
:102B8000ABE70C4B0C4A3D210C4800F0ABFD012497
:102B90006442200009B03CBC90469946A246AB4630
:102BA000F0BD0024F5E7C046E8A900103CA80010DD
:102BB000E8AA0010DCA80010D8A70010F8A80010A0
:102BC00070B504004268EFF3108572B61368002BED
:102BD000FCD0BFF35F8FCAB22668737B9A421BD1C9
:102BE0000120002849D023698B422DD0090AC9B29F
:102BF000002A2FD023681B7B9A422BD8531EE068F3
:102C0000C35C8B422CD000206368BFF35F8F00222F
:102C10001A6085F3108870BD002A0DD0337B9A426C
:102C20000AD853009B18033B3068844663449B7862
:102C3000002B07D10020D4E7134B144A6921144814
:102C400000F050FD0120CCE7124B134AFE2113483F
:102C500000F048FD124B134A4021104800F042FD9D
:102C60001100300000F050FC0028CDD106210E4BA1
:102C7000094AFF31094800F035FD23698B42C3D171
:102C800000232361C0E7C04640AA0010F0A700104F
:102C90005CAA0010C0A900109CA80010E8AA0010AF
:102CA000E8A900103CA80010E4A90010F0B587B016
:102CB00006000F00FDF7D7FA00282AD10624644247
:102CC000E517A4197D41BD4202D803D1B44201D910
:102CD00000240025002D1FDB0494059500F02AF93F
:102CE00000291FDB241A8D41002D21DDFFF79EFEF8
:102CF000002302930193254B0093049A059BFFF751
:102D0000ABFE002831DA3000390000F01FF907B0BF
:102D1000F0BD1F4800F004FD1E4B1F4A3D211F4817
:102D200000F0E0FC1B4B1C4A3D211C4800F0DAFC83
:102D3000002DE8D1002CD9D1E5E7002300E00023E5
:102D4000002BE0D1164B1A68EFF3108172B61368AE
:102D5000002BFCD0BFF35F8F114B1B68BFF35F8F5D
:102D600000221A6081F3108820BF0499059A0D4B48
:102D70005B6A9A42E3D80B48806A884203D29A423F
:102D8000DBD00123DCE70123DAE7C046A5230010EE
:102D90001CAB0010DCA80010D8A70010F8A8001089
:102DA000701500200040054070B504000D0000F0D3
:102DB000C1F8002910DB02000B00001969418B42A9
:102DC00002D804D1824202D901204042C117002911
:102DD00008DBFFF76BFF70BD054B064A3D21064837
:102DE00000F080FC024B034A3D21034800F07AFCCE
:102DF000DCA80010D8A70010F8A8001010B5FA221F
:102E000092000023002103F045F8FFF7CDFF10BD2D
:102E100070B584B005000C00FFF708FE0023029394
:102E20000193194B00932A002300FFF715FE061E9D
:102E300012DC164B5B6A9C4209D8144A926AAA4279
:102E400008D29C4201D0012002E0002000E00020D6
:102E500004B070BD0120FBE720BFFFF7E7FD3100A4
:102E6000FFF7AEFE094B5B6A9C4209D8074A926A9B
:102E7000AA4207D29C4201D00120E9E70020E7E7FF
:102E80000020E5E70120E3E7A5230010004005400E
:102E900070B5EFF305833F2018401038EFF310842E
:102EA00072B6194B1B68002BFBD0BFF35F8F012359
:102EB00019008140154A5163154A12781500C54022
:102EC0002B4214D0114B5D6A8300124E9B599D42D8
:102ED00006D38300104D5B598A430D490A7007E001
:102EE0000A4A031D9B0099589950002300E00023D3
:102EF000BFF35F8F044A0021116084F31088002B18
:102F000000D0984770BDC046280100D00040054061
:102F1000A91500207C150020840F002010B50100A9
:102F2000024A0348FEF7A6FF10BDC046A0AB001042
:102F3000A6150020044B596A00E01900024B986A5C
:102F40005B6A9942F9D1704700400540084B5B6AC3
:102F500001E0074B5B6A8B42FBD301E0044B5B6AE9
:102F60008B4203D1024B9B6A8342F7D37047C04622
:102F70000040054070B504000D00FFF7DBFF0200C4
:102F80000B0020002900801859418B4202D804D13F
:102F9000824202D901204042C117002902DBFFF71B
:102FA000D5FF70BD024B034A3D21034800F09AFB58
:102FB000DCA800106CAB0010F8A8001070B504007D
:102FC0000D00EFF3108672B61B4B1B68002BFBD075
:102FD000BFF35F8F002D1CD0200000F037FD174B92
:102FE00098420BD01900200000F038FD012120008C
:102FF00000F01CFD0123A340114A1360A400114BF3
:10300000E550BFF35F8F0C4B00221A6086F31088E7
:1030100070BDA2000B4B0021D1500122A2400A49F1
:103020000B7893430B700549200000F041FD00210F
:10303000200000F0FBFCE4E7280100D0912E0010F6
:1030400038600540840F0020A9150020F0B5DE4649
:1030500000B584B00500140001921E000293FFF732
:1030600069FF03948E422CD9EFF3108B72B6294B73
:103070001B68002BFBD0BFF35F8F274A1778012412
:10308000AC40E3B23B431370244B5C632A1D9200B7
:103090000199D150AA002249029850501B6A23423C
:1030A0001BD11E4B1B6C234211D00020BFF35F8F3E
:1030B000184B00221A608BF3108804B004BC9346AE
:1030C000F0BD8E4201D18442CED80120F5E7154BE8
:1030D000154AC121154800F005FBFFF72BFF8E4272
:1030E00014D802D1039B834210D80B4B1B78BB42F0
:1030F0000ED00A4B1C625C631F222A4001239340BE
:103100000B4A1360044B1F700120CFE70020CDE76E
:103110000120CBE7280100D0A91500200040054080
:103120007C150020C4AB001084AB0010E8AB00108D
:1031300080E200E010B5EFF3108472B60A4B1B6812
:10314000002BFBD0BFF35F8F01238340074A13623C
:1031500007490A789A430A70BFF35F8F024B002237
:103160001A6084F3108810BD280100D0004005408B
:10317000A9150020024B9C466144890001607047FC
:103180004000003470B504000D00FEF7CFFE0100D2
:103190002000FFF7EFFFFF2323716571BFF35F8FFF
:1031A00070BD10B50021FFF7EDFF10BD10B5FF2178
:1031B000FFF7E8FF10BD0000034B9C466144890007
:1031C0000160BFF35F8F70474000003410B504000A
:1031D0000120FEF7B9FE01002000FFF7EDFF10BD52
:1031E00010B500291FD0037B99421CD84B005B18F7
:1031F000033B0468A446634400291AD0002A1ED069
:10320000914222D0002A26D0047BA24223D804680F
:10321000500080180338201881701978002920D0B8
:1032200041701A7010BD104B104A6921104800F00F
:1032300059FA104B104A70310D4800F053FA0F4BF9
:103240000D4A71210A4800F04DFA0D4B0A4A7221CD
:10325000074800F047FA044B044A6921044800F08B
:1032600041FA1A70DEE7C04640AA00102CAD0010EB
:103270005CAA0010A4AA001038AD0010B0AA00107B
:10328000BCAA001070B506000D00140000290BD078
:10329000002A12D0806873689847002806D12A0057
:1032A00021003000FFF79CFF200070BD22002900A4
:1032B0003000FFF795FF2C00F6E70C00F4E7000064
:1032C00010B50023437301338373037BC37301235E
:1032D000027B9A4214D9002B0CD0027B934209D86E
:1032E0005A00D218033A01688C4662440133DBB2BB
:1032F0005370EDE70B4B0C4A69210C4800F0F2F9D2
:10330000002A09D0924207D8016853009A18033A5C
:103310008A180023537010BD024B034A69210348E9
:1033200000F0E0F940AA00102CAD00105CAA0010DB
:1033300010B5017342608360FFF7C2FF10BD00004B
:1033400070B50400002901D1080070BD002934D0F7
:10335000037B994231D84B005B18033B02689446CB
:1033600063445A78002AEFD02DD0037B9A422AD8A2
:1033700053009B18033B0068844663445D7800203B
:103380005870002925D0237B994222D84B005B1826
:10339000033B206884466344002058702000FFF7F8
:1033A00071FF060029002000FFF7CAFF020031006C
:1033B0002000FFF767FF0100C6E7094B094A6921B2
:1033C000094800F08FF9064B064A6921064800F0CB
:1033D00089F9034B034A6921034800F083F9C04689
:1033E00040AA00102CAD00105CAA001070B50500BA
:1033F0000C001600002928D02DD0037B99422AD832
:103400004B005B18033B0268944663445A78002AD9
:1034100027D19A78002A2AD11978FFF791FF030063
:10342000002E03D0EA7B002A27D1EC73002B37D182
:10343000002C49D02B7B9C4246D82A6863001C197B
:10344000033C14190023637070BD224B224A3821BB
:10345000224800F047F9224B224A6921224800F015
:1034600041F9224B1C4A3A211C4800F03BF9204B01
:10347000194A3B21194800F035F9002A0AD0297B66
:103480008A4207D851008A18033A29688C46624458
:103490005470CAE7124B134A6921134800F022F90D
:1034A000002B0BD02A7B934208D843001B18033B08
:1034B0002A689446634400229A70B9E7084B094A87
:1034C0006921094800F00EF9054B064A69210648B2
:1034D00000F008F9A0AD00104CAD0010A8AD001030
:1034E00040AA00102CAD00105CAA0010DCAD00104A
:1034F00004AE001070B504000A00457B2900FFF7F8
:1035000075FF6073280070BD10B50400002966D0F7
:10351000437B8B420ED0002911D0037B99420ED8F9
:103520004B005B18033B0268D0188378002B0CD14A
:10353000002055E00121FFF7DDFF012050E0294B7D
:10354000294A6921294800F0CDF8002B1FD0227BA1
:1035500093421CD85A00D318033B2268D218137820
:103560008B421AD0002B1BD0227B934218D85A00D2
:10357000D318033B2268D21853788B4216D0002B05
:10358000F0D11B4B1B4A67211B4800F0ABF8154BD1
:10359000154A6921154800F0A5F84378137007E033
:1035A000104B114A6921114800F09CF84378537080
:1035B00000238370437001222000FFF717FF0200F1
:1035C000617B814205D02000FFF75CFE6073012023
:1035D00006E00A4B074A6D21074800F083F80020F7
:1035E00010BDC04640AA00102CAD00105CAA00100F
:1035F00078AD001060AD0010A8AD001080AD0010D7
:1036000070B5264B264A1A60264B274A1A60274B6C
:103610009A68254B9343FAD1254C01E008CC984792
:10362000244B9C42FAD300F011F91E4B224A1A6037
:103630001E4B9B68DB43DB01FAD1204B40229A678B
:103640005A671A67DA661E4C03E02000FFF7A9FDEF
:1036500008341C4B9C4206D26379002BF5D0200025
:10366000FFF7A4FDF4E7184CA168184DC02228000C
:1036700002F0A4FDA560FCF7F6FD002800D000BE16
:10368000FEF744FC00F07AFBFFF7B4F9104C01E0C0
:1036900008CC98470F4B9C42FAD370BD00E0004025
:1036A000BFCDFBFE00F00040FE7F3C0000C00040AC
:1036B000BC050020CC050020FFFFFF0100F0014009
:1036C000B4050020BC05002000ED00E00000002053
:1036D000CC050020D805002000BEFDE710B5FFF79F
:1036E000FBFF000010B582B00C001900002A0CD0BE
:1036F000084B002A0BD001920093230002000648D9
:1037000002F0CAFE0120FFF7E7FF044BF1E7034A8E
:10371000F1E7C04628AE001038AE0010E8A0001057
:103720000FB400B583B0084802F086FE049B002B5E
:1037300007D005A90191180002F08CFE034802F0A1
:103740007BFE0120FFF7C8FF68AE0010E4A1001067
:10375000F0B5DE46574680B583B007000E009246AE
:103760000A9A93424CD3190E01911B021800009340
:103770000A9A002301F05AFD05007B00DB199C002A
:103780002D4B9C4664446368834200D260603B1FBB
:10379000DBB29B46012B39D9C0239B0123438022F6
:1037A00012011A60BB00254A9958002905D05069BA
:1037B00001F0FAFC01300138FDD153465B0122686B
:1037C0005340E022134080225201224313605B46A3
:1037D000012B26D980239B012343802212011A60EA
:1037E00065602A0000230098019901F01FFDBF00C9
:1037F000124BF850012003B00CBC92469B46F0BD22
:103800000F4B104A2D211048FFF76CFF012EC3D13A
:10381000C0239B01234303221A60A368DB07FCD566
:10382000CBE72168714003230B401360A36801229A
:10383000B2401A42FAD0CDE7008000409810002034
:1038400088AE001078AE00109CAE001030B583B08A
:103850000C2000F02BFBFEF74FFB00280DD00023BF
:1038600004E099002D4A2E4888500133092BF8D9DD
:103870002A4B2C4A5A6203B030BD2B4B00229A6768
:1038800000F07EFB294B01221A60274B5B6C012B59
:10389000FBD1274B03221A60234B9B6B012BFBD1DF
:1038A000022400940533234A0121234800F072FAD0
:1038B00000940523214A0121214800F06BFA214B95
:1038C0000093002202210420FFF742FF1E4D0095C5
:1038D0002B00002201210520FFF73AFF104C009435
:1038E0002300002200210720FFF732FF009423006D
:1038F000002200210820FFF72BFF0A4B0093230032
:10390000002200210920FFF723FF00952B00002251
:1039100000210620FFF71CFFADE7C04698100020ED
:10392000006CDC021BB70000008000403CB000408F
:1039300030B00040002F68590080024000389C1CC5
:1039400000C00240001BB700405973078000014BC4
:10395000C058704798100020074B9B6810308000BB
:103960001950BFF35F8FBFF35F8F044B00211960C5
:1039700082F310887047C04600ED00E0240100D0BB
:1039800010B5091A04394808090B05D14005400D46
:10399000044B184380B210BD034B044A8C210448E9
:1039A000FFF7A0FE00E0FFFFD0B00010F8AE00105F
:1039B000E0B0001010B5091A04394C08090B08D101
:1039C0004905490D064A11430180064B23434380B4
:1039D00010BD054B054A94210548FFF783FEC046FC
:1039E00000F0FFFF00F8FFFFD0B0001004AF0010A0
:1039F000E0B0001001238340034A10681840431EC2
:103A00009841C0B27047C04600E100E0002902D1F1
:103A1000034B18607047034B1860034B1860F9E7BD
:103A200080E100E080E200E000E100E010B5012369
:103A300083401800FFF7EAFF10BD00000123834018
:103A4000014A13607047C04600E200E0024B9B68E9
:103A500010308000C058704700ED00E070B50400E1
:103A60000D00EFF3108672B60C4B1B68002BFBD0D9
:103A7000BFF35F8F2000FFF7E9FF094B984201D0A9
:103A8000A84205D1320029002000FFF765FF70BD74
:103A9000044B054A70210548FFF724FE240100D09D
:103AA000CD01001098B00010DCAE0010E0B00010A6
:103AB000F0B5CE4600B584B001900D00EFF310864E
:103AC00072B65A4B1B68002BFBD0BFF35F8F584B6D
:103AD0009A68019C1034A300D758564B9F4200D1DE
:103AE0009FE0AF4200D19EE00297534BFB1A2F2B71
:103AF00008D9320039000198FFF72EFF04B004BC4A
:103B00009146F0BD0198FFF775FF039000210198E1
:103B1000FFF78CFFBFF35F8FFCF7A5FB002801D0F8
:103B200084421AD10123029C9C43230042495B1A20
:103B30005B414B495943090D4BB29C460023A16898
:103B4000A94212D00622A256002A0DDB53009B1870
:103B50009A002300384CA418F1E72021374B384A4B
:103B6000FF313848FFF7BEFD2300A94252D106229B
:103B7000A2569146002A38DB52004A4491002E4B4F
:103B80005B189A68A260DA79E27106229A56A271ED
:103B90009B795BB2002B12DABD200002A0804B465D
:103BA0005B004B449A00244B9B18274A117899716B
:103BB0004B46137003990198FFF738FF99E7201DD2
:103BC0001D4A8B181A1D9B88D90A1C2907D1590533
:103BD0004915023149005118FFF7D2FEDEE71B4BB1
:103BE0001B4A9A211748FFF77DFD00280DD1002BB5
:103BF00009D0FF229A71174A9A80134B1A78A27142
:103C000062461A70D6E70B4FF7E7201D1249FFF7FF
:103C1000D1FECFE7AA21114B094A49000948FFF715
:103C200061FD044F65E7034F63E7C046240100D000
:103C300000ED00E0CD010010F40400206CB0001095
:103C40002CAF0010E0B00010A715002020B000102D
:103C50001CAF001000BDFFFF2E05002090B000102B
:103C6000AAAA000010B5032304009C43064A944608
:103C7000644422681840C000FC3383409A4381406A
:103C80001143216010BDC04600E400E0F8B5040017
:103C9000012606432D4BF31A2F2B28D8FCF7E3FA05
:103CA00000282BD0EFF3108572B6294B1B68002B30
:103CB000FBD0BFF35F8F230024495B1A5B412E4981
:103CC0005943090D49B2234B9B6880001B58B342EE
:103CD0001BD00023032B32D85A00D21890001B4A65
:103CE0001218927952B28A421FD00133F2E7722140
:103CF000194B1A4AFF311A48FFF7F4FCBA21194B45
:103D0000164A49001648FFF7EDFC124B9B68164A0D
:103D10001A50164B1A78A2711970BFF35F8F0C4BB3
:103D200000221A6085F31088F8BD08485A00D71899
:103D3000BE008619FF27B7710D4BB380E9E78621D6
:103D40000C4B064AFF310648FFF7CCFCF404002078
:103D5000240100D000ED00E038B0001040AF0010AA
:103D6000E0B0001060B00010CD010010A7150020D9
:103D700000BDFFFF78AD0010AAAA000010B5002416
:103D800004E080212000FFF76DFF01341F2CF8D9DB
:103D900010BD0000F0B583B00400019117001E00B3
:103DA0000C2001F001FA05004201121A93019B1A3E
:103DB000DB001B189901380001F0F6F90200103AF7
:103DC00098235B009A4232D8731E062B35D8089B85
:103DD000013B062B31D8089B9E4234D33F09AF42AA
:103DE00037D33304089A16031E432368002B36DBAF
:103DF000244B9C4242D080214901234B1960234B24
:103E00001960234A92680B009343FAD1019B236007
:103E1000A060221DC0239B01134321221A60226847
:103E2000002AFCDAE66008221A6003B0F0BD194BE4
:103E3000194A16211948FFF755FC194B164A192142
:103E40001648FFF74FFC174B134A1F211348FFF783
:103E500049FC154B104A22211048FFF743FC226809
:103E60003F231340019A9342C2D1A3681B051B0D47
:103E70008342BDD1E368002EBAD1D6E78021890103
:103E8000BBE7C04600C0024000E0004000F0004038
:103E900000C0004028B100101CB1001044B1001057
:103EA00080B10010CCB10010E4B1001080239B0061
:103EB0001843014BD862704700800540024B1A68D6
:103EC000024B5A607047C046301500200080054004
:103ED00010B5144B8022D2051A60134B134A1A6096
:103EE000002919D0124BE022D2041A60002800D118
:103EF000323043011B1A9B00181803010D4A13604E
:103F00000D4A934201D90B4B1A60FFF7D7FF084BBC
:103F10008022D2051A6010BD024BE022D2041A6042
:103F2000E4E7C04600B0054008200140FCFF010066
:103F300000A0054030150020FFFFFF0010B50C4B1E
:103F40008024E4051C60002807D10A4B0021D961B8
:103F500000211000FFF7BCFF10BD01230343054CF7
:103F60000548E0610548584020626162A362EFE7BE
:103F700000B0054000800540D3C007B02D3FF84F8A
:103F8000064BAA2212011A602F22DA60044B054A5E
:103F90001A60024B5B68002BFBDA7047004002405E
:103FA0000060024000B0FA009A4200D28854704784
:103FB000704710B5002802D00B684968984710BDBB
:103FC000002307E09A00D3185A004B1C03600B78BB
:103FD0009B18303B01680A78303AD2B2092AF1D9ED
:103FE00018007047F0B5D6464F464646C0B582B079
:103FF00005000091904601930A9B99460B9C0C9EEC
:104000000D9B9B0712D04E460C9B994618E0541C02
:10401000019B00992020A84701372200B742F6D320
:1040200054460C964E460C9B994609E02700A24642
:10403000F4E7013C571C305D019B0099A8473A000A
:10404000002CF6D14E460D9B9B070AD5474605E04E
:10405000541C019B00992020A8472200D31BB34287
:10406000F6D3100002B01CBC90469946A246F0BDA3
:10407000F0B5CE46474680B587B0049205930E9EB4
:104080000F9C10AD2B789946129F139B149DAA0785
:104090001CD4002B0CD0EA070AD54A46002A02D1CC
:1040A0000C322A4204D0013B02E030223255013466
:1040B000BC4205D21F2CF8D902E03022325501341F
:1040C000EA0703D59C4201D21F2CF6D9EA0615D582
:1040D0006A0505D4002C03D0BC421CD09C421AD0E7
:1040E000119A102A23D0119A102A28D0119A022A44
:1040F0002DD01F2C02D83027375501341F2C2FD834
:104100004A46002A29D16A0737D42A0728D520270A
:104110003755013424E0671E002F06D0119A102A6B
:1041200001D03C00DCE7023CDAE73C00D8E7AA0615
:10413000D9D41F2CD7D8782737550134D9E7AA0608
:10414000D4D51F2CD2D8582737550134D1E71F2C8E
:10415000CFD8622737550134CBE72D2737550134A7
:104160000395029301940096059B049AFFF73AFF8A
:1041700007B00CBC90469946F0BD2B27375501344B
:10418000EEE7F0B5C64600B594B0089009910A92E2
:104190000B931AAB10CB1B7898461F9D002C01D1B6
:1041A00010239D438027FF002F4016D0002C20D0E5
:1041B000002712E0AA061AD54121C918C9B20A3946
:1041C000C9B27E1C0CABD9551C99200000F0ECFF45
:1041D000041E0FD01F2E0DD837001C99200000F0B0
:1041E000E3FFCBB2092BE5D83033D9B2E9E761213F
:1041F000E3E7002606951E9B05931D9B04931C9BDD
:1042000003934346029301960CAB00930B9B0A9ACF
:1042100009990898FFF72CFF14B004BC9046F0BD34
:10422000F0B5D6464F4680B599B00C900D910E92E0
:104230000F93209C219D22AB1B789A46249B0A93C6
:10424000259B0B93289B994623002B4303D11033C6
:104250004A469A4391468026F6004B461E4007D0B8
:1042600023002B4331D0002637004E4609941BE033
:1042700037004E46099417E0B20621D54122D218E4
:10428000D2B20A3AD2B27C1C10ABDA550A9A0B9B16
:104290000998290000F0CAFF09900D000B000343A4
:1042A00015D01F2C0ED827000A9A0B9B09982900BD
:1042B00000F0BCFFD3B2092BDED83033DAB2E2E72C
:1042C0006122DCE72700B14603E0002701E0270078
:1042D000B1464B460693279B0593269B04930A9B66
:1042E000039353460293019710AB00930F9B0E9AD2
:1042F0000D990C98FFF7BCFE19B00CBC91469A467C
:10430000F0BD0000F0B5DE4657464646C0B592B057
:1043100008900691099207931A9C1B9D22002B007E
:104320002000290001F00FFA002800D0EAE0012265
:104330005242D34B2000290001F000FA002800D09F
:10434000E0E001225242CF4B2000290001F0E0F9C9
:10435000002800D0D6E0002200232000290001F030
:10436000D7F9002800D0E3E022002B000A920B933B
:104370008023DB001E9A1A409246131E01D1063399
:104380001C930A980B9902000B000C920D930300EA
:104390000A00024300D1D3E00A00100D4005400D91
:1043A000B94EB44660441203120B1E00B74B1343C0
:1043B0001F0001F0DBF9B64AB64B01F066F9B64AC8
:1043C000B64B01F03BF90C900D910022B44B30003C
:1043D000390001F02AF9B34AB34B01F056F9020053
:1043E0000B000C980D9901F029F901F0D7F98046DE
:1043F00001F0BCF9AD4AAE4B0C900D9101F045F9BE
:104400000022AC4B01F01AF901F0C8F90700AA4AE2
:10441000AA4B0C980D9901F038F90C900D913800C9
:1044200001F0A4F9A64AA74B01F02FF902000B00F6
:104430000C980D9901F0F9F802000B001090119101
:1044400001F023F90E900F919F4BFB181B050D9364
:1044500000230C93109E119F32003B003000390066
:1044600001F0ECF81090119132003B000020802107
:10447000C90501F0DAF806000F000022934B0E98F0
:104480000F9901F0E4F80022914B01F0D7F80200F7
:104490000B000E980F9901F0DAF800228D4B01F015
:1044A000CDF802000B000E980F9901F0D0F8020031
:1044B0000B003000390001F0C1F802000B00109829
:1044C000119901F0C4F80022704B01F0B7F80C9A72
:1044D0000D9B01F0DAF806000F000C900D910A9A7E
:1044E0000B9B01F02BF900282CD001235B429C464A
:1044F000E0440022764B3000390001F0A8F80C901F
:104500000D911FE01E9B04931D9B03931C9B029324
:1045100022002B0000920193079B099A06990898A4
:1045200000F002F912B01CBC90469A46A346F0BDBA
:104530000A9480231B069C46AC4463460B9317E702
:104540000023984643466333C62B22D804271E9B7C
:104550001B052AD50C9A0D9B1900114311D05E4AF8
:104560005E4B0A980B9901F0E1F8002800D1BBE0FE
:1045700000225B4B0A980B9901F0CAF8002800D181
:10458000B2E01C9B434506DD42469E1A731E1C93F7
:1045900003E00527DBE700231C938023DB001E9A42
:1045A0001A431E920027002398461D9B9F4200D36A
:1045B000A6E0DB1B9B4602231E9A1A40924603D0BC
:1045C000002F01D000239B464346002B07D00C9AB6
:1045D0000D9B0A980B9901F03AF80A900B91002272
:1045E00000232000290001F093F8002800D08AE081
:1045F0003C4B1E9A134004935B4603931C9B02930F
:104600000A9B0B9C00930194079B099A06990898B2
:1046100000F08AF8002F00D184E71E9B9B0600D48F
:104620007DE04524451C079B020006992000089C5C
:10463000A0474046C21781185140C30F7A1E05207B
:1046400005900492002203920A3202920193009193
:10465000079B2A0006992000FFF793FD5346002B85
:1046600000D15FE70200089D099C131B1D998B4236
:1046700057D2561C079B06992020A8473200F4E722
:10468000FFFFEF7FFFFFEFFF01FCFFFF0000F03FA8
:10469000FB799F501344D33FB3C8608B288AC63F31
:1046A0000000F83F61436F63A787D23F71A3790988
:1046B0004F930A400000E03F1655B5BBB16B024076
:1046C000EF39FAFE422EE63FFF03000000002C40C7
:1046D00000002440000018402D431CEBE2361A3F36
:1046E00080842E41FFF7FFFF1C9B002B00D15CE76D
:1046F0005346002B00D158E71C9B013B1C9354E709
:1047000000239B4657E70A9C0B9D2200290080202E
:104710000006844661440B000A920B9368E7652407
:1047200080E71000FEE6C046F0B5D646474680B5A5
:1047300097B00690079108920993209F1E9A1F9B9D
:104740001000190000F0FFFF00282AD10122524278
:10475000BB4B1E981F9900F0DBFF002830D10122CF
:104760005242B84B1E981F9900F0E8FF00283AD03B
:104770000423229A134032D0B34A002B31D10323B1
:10478000229903912199029101930092099B089A21
:1047900007990698FFF726FC17B00CBC90469A467E
:1047A000F0BD229B0393219B029303230193A74B0C
:1047B0000093099B089A07990698FFF713FCEBE70B
:1047C000229B0393219B029304230193A04B00930C
:1047D000099B089A07990698FFF704FCDCE79D4AB5
:1047E000CBE70423CCE700229B4B1E981F9900F0D7
:1047F000A5FF002817D10022984B1E981F9900F0A2
:1048000087FF00280FD1002200231E981F9900F077
:104810007FFF002817D100239A46229B5B0500D416
:104820007DE000261FE0229B0493219B03930297C7
:104830001E9B1F9C00930194099B089A0799069858
:10484000FFF760FDA8E71E9A1F9B0020002100F0E3
:10485000ECFE1E901F9101239A46DEE70EAB30223C
:104860009A55013F01361F2E01D8092FF6D81E9800
:104870001F9900F093FF040000F078FF02000B0086
:104880001E981F9900F0D1FEFA00754B9B181A680C
:104890005B680C920D9300F0F8FE0A900B9100F00B
:1048A000A1FF050000F05EFF02000B000A980B99C3
:1048B00000F0BBFE0A900B9100226A4B00F03EFF15
:1048C00000282ED00135280000F04CFF02000B001C
:1048D0000C980D9900F022FF002801D0013400252A
:1048E000002F2CD1200000F041FF02000B001E9889
:1048F0001F9900F09AFE00225A4B0A900B9100F08B
:1049000007FF002841D10022564B0A980B9900F06E
:1049100015FF002839D1E30737D5013435E00627E4
:104920007FE700224F4B0A980B9900F0F1FE002818
:10493000D6D1002D01D0EB07D2D50135D0E70A94AE
:104940001F2E10D8013F0A21280000F02DFC741CF6
:1049500030310EAB99550A21280000F025FC051EC8
:1049600025D02600ECE70A9C04E00EAA30219155E0
:104970001F0001361F2E02D87B1E002FF5D11F2EDF
:1049800003D80EAB2E229A5501361F2E14D80A21B9
:10499000200000F0E1FB751C30310EAB99550A2167
:1049A000200000F0D9FB041E05D02E00EDE7A04644
:1049B0000A9C4646DEE72E000323229A1340012B71
:1049C00016D01F2E06D85346002B28D00EAB2D2212
:1049D0009A550136229B0393219B029301960EABBD
:1049E0000093099B089A07990698FFF7FBFAD3E60C
:1049F000219B002B0DD05346002B02D10C331342C8
:104A000007D0219B013B219303E00EAB30229A5546
:104A10000136219B9E42D4D21F2EF6D9D1E7229B8C
:104A20005B0704D50EAB2B229A550136D2E7229BA9
:104A30001B07CFD50EAB20229A550136CAE7C046D8
:104A4000FFFFEFFFFFFFEF7FE0B30010ECB30010BC
:104A5000F0B30010E8B3001065CDCD4165CDCDC1F8
:104A6000F8B300100000E03FF0B5DE4657464E4672
:104A70004546E0B595B006000B911500139300294B
:104A800000D1FCE20027139B1878002800D1F8E23F
:104A9000252809D07C1C2B003A000B99B047139BAA
:104AA000013313932700EEE70133139300241DE035
:104AB0000B00303BDBB2092B37D92A293AD000232F
:104AC0009A46139B1A782E2A44D000230C93139AEB
:104AD0001378683BD9B2122900D980E08B00D04905
:104AE000CB589F4601231C4301321392139A11782D
:104AF0000B00203BD8B21028DAD88300C948C3582D
:104B00009F4602231C4301321392EFE704231C4308
:104B100001321392EAE708231C4301321392E5E7BE
:104B200010231C4301321392E0E713A8FFF748FA61
:104B30008246C6E71E9B1A1D1E921B68002B04DBD3
:104B40009A46139B01331393BBE7022214435B4243
:104B50009A46F6E78022D20014435A1C13925A78E0
:104B60001300303BDBB2092B04D92A2A07D00023DB
:104B70000C93ACE713A8FFF723FA0C90A7E71E9B52
:104B80001A1D1E921B68002B04DB0C93139B013330
:104B900013939CE70023F8E780235B002343511C19
:104BA000139152786C2A01D01C0018E0C0239B009E
:104BB0001C430131139112E080232343511C1391B4
:104BC0005278682A01D01C0009E0C0231C4301313F
:104BD000139104E080235B001C4301321392139B6A
:104BE00018780300253BDAB2532A00D93DE293003E
:104BF0008D4AD3589F4680239B001C430132139259
:104C0000EDE780235B001C4301321392E7E778282D
:104C10000AD058283BD06F283CD062283DD01023C2
:104C20009C43063B9C4601E010239C46582837D005
:104C3000692803D0642801D00C229443630501D570
:104C40000122944369282ED064282CD0A30500D5D6
:104C5000A5E0E30500D5BFE0630600D4D2E01E9ACC
:104C6000111D1E911168FF220A40059453460493BA
:104C70000C9B0393634602930023019300922B0045
:104C80003A000B993000FFF77CFA07002BE0102365
:104C90009C46CBE708239C46C8E702239C46C5E711
:104CA00020221443C4E7A30521D4E30551D46306AD
:104CB00068D51E9A111D1E911168FF220A40D31754
:104CC000D1185940D20F0594534604930C9B03937B
:104CD00063460293019200912B003A000B99300039
:104CE000FFF74FFA0700139B01331393CBE61E9B8C
:104CF000DA1D07218A43110008311E91116853689B
:104D00009846DB1710931193109A119B100048409E
:104D10000E901900404641400F910E980F99801A4D
:104D200099410E900F914346DA0F0894534607932A
:104D30000C9B069363460493002305930292009014
:104D400001912B003A000B993000FFF769FA070038
:104D5000C9E71E9A111D1E911268D317D118594028
:104D6000D20F0594534604930C9B0393634602931E
:104D7000019200912B003A000B993000FFF701FAE5
:104D80000700B0E7230605D51E9A111D1E910023CA
:104D9000D25E94E71E9A111D1E9112688FE71E9B2A
:104DA000DA1D07218A43110008311E9153681268E9
:104DB0000092019300220894534607930C9B06939C
:104DC00063460493059202922B003A000B9930003F
:104DD000FFF726FA070086E71E9A111D1E91136839
:104DE00000930594534604930C9B039363460293EC
:104DF000002301932B003A000B993000FFF7C1F913
:104E0000070070E7230606D51E9A111D1E91126831
:104E10001204120C29E71E9A111D1E91126824E734
:104E200000B200104CB2001090B2001046281AD008
:104E30001E9B0733072293431A0008321E921A68FA
:104E40005B68009201930494534603930C9B029376
:104E50002B003A000B993000FFF766FC0700139B0C
:104E6000013313930FE620231C43E1E7672801D0A9
:104E7000472802D180231B011C43452801D0472825
:104E800001D120231C431E9B0733072293431A00A2
:104E900008321E921A685B6800920193049453468C
:104EA00003930C9B02932B003A000B993000FFF701
:104EB00029FA0700139B01331393E4E502232340EF
:104EC000994622D0012398461E9B1A1D1E927C1CD7
:104ED00018782B003A000B99B0474B46002B1AD19B
:104EE000139B013313932700CDE5571C0C9B0B99A3
:104EF0002020A84723003A005C1C9E42F5D8B24609
:104F00001700A0462E000C9DDEE701233A000C9509
:104F100035005646F0E7220043460C9535005646CC
:104F200006E0571C0C9B0B992020A84723003A0051
:104F30005C1C9E42F5D814002E000C9DD0E71E9BF1
:104F40001A1D1E921B689B460C9B002B21D101222F
:104F500052425B4601E001330A001978002902D071
:104F6000511E002AF7D15A469B1A98468023DB002F
:104F70002340994603D00C9B984500D998460223BC
:104F80002340129307D03A005C4637004E460D95F9
:104F90001FE00C9ADDE73A004346370056460D9570
:104FA00006E0551C0D9B0B992020B84723002A00D2
:104FB0005C1C9E42F5D8B2463E00A0465C463700D7
:104FC0004E4606E00C930134551C0D9B0B99B847D7
:104FD0002A002078002805D0002EF4D00C994B1E12
:104FE0000029EFD13E0017000D9D129B002B03D12D
:104FF000139B0133139346E543460C953500564603
:1050000006E0571C0C9B0B992020A84723003A0070
:105010005C1C9E42F5D817002E000C9DE8E721236A
:1050200023431E9A111D1E911268009205930823B6
:1050300004930C9B039310230293002301932B00F2
:105040003A000B993000FFF79CF80700139B0133DF
:10505000139318E57C1C2B003A000B992520B047D0
:10506000139B0133139327000DE57C1C2B003A00A2
:105070000B99B047139B01331393270003E5094EA7
:1050800000E5AF420CD36A1E2B000B990020B047FD
:10509000380015B03CBC90469946A246AB46F0BDE0
:1050A0003A00F1E7B13F00100EB410B585B0010031
:1050B00007AC08CC03940122009452420348FFF746
:1050C000D3FC05B010BC08BC03B01847A93F0010C2
:1050D00000B585B0029003910121009313004A426C
:1050E00002A90248FFF7C0FC05B000BDB33F0010A5
:1050F00001480421014B18474005002021510010B0
:1051000010B5010018231B8814221088984710BD81
:1051100010B5010018231B8816221088984710BD6F
:10512000F0B5C64600B507000E00002501239846DD
:1051300000E00135B5420AD2AC003C192068FFF707
:10514000DFFF20600028F4D100239846F1E74046B5
:1051500004BC9046F0BD0000124A936F9B0815D224
:105160009066D166002905D0FFE7FFE7FFE7516FA2
:10517000106F704704B580210906C21751400028FE
:1051800000D0C84304F0A8FE002104BDF0B5146EA1
:10519000556E576F166FFFF7E3FF14665566576736
:1051A0001667F0BD000000D0114A936F9B0813D220
:1051B00010665166002905D0FFE7FFE7FFE7516F52
:1051C000106F704704B5002801D00020C04304F0E0
:1051D00083FE002104BDC046F0B5146E556E576FB6
:1051E000166FFFF7E5FF1466556657671667F0BD43
:1051F000000000D094464E4A926F9208624601D257
:1052000030E0C046F0B54A4EB56F6D08FCD3346E41
:10521000756E776F366F00F025F89446444A146631
:105220005566576716676246F0BDC0469446404AC9
:10523000926F9208624601D258E0C046F0B53C4EEB
:10524000B56F6D08FCD3346E756E776F366F00F0F6
:105250004DF89446364A1466556657671667624697
:10526000F0BDC046002B24DB11D000293EDA00B58A
:10527000C943404200D1013100F038F8C9434042EF
:1052800000D10131DB43524200D1013300BD002A7D
:10529000EBD1002801D1002905D00020C90FC90792
:1052A00001D1C043410800B504F00EFE00220023E6
:1052B00000BD00B500290ADBDB43524200D10133B7
:1052C00000F014F8C943404200D1013100BDC94388
:1052D000404200D10131DB43524200D1013300F0A2
:1052E00005F8DB43524200D1013300BD002923D130
:1052F000002B18D1002A0CD0BC460D4F38667A66B8
:1053000000210023FFE7FFE7FFE77A6F386F67466A
:105310007047002801D00748010000B504F0D4FD13
:105320000022002300BD02000B0000200021704776
:10533000000000D0FFFFFFFF002B00D0BDE0130CEA
:1053400026D1002AE7D080B4104F39667A66FFE78D
:10535000FFE730B4040C7B6F396F1B0423433B66BB
:10536000FFE7FFE7FFE7C04684B27B6F3D6F1B049A
:1053700023433B66FFE7FFE7C04600232C042D0CC8
:105380007A6F386F00196941B0BC7047000000D0D7
:10539000F0B594460025140E01D112020835140F01
:1053A00001D112010435940F01D192000235D40FBE
:1053B00001D152000135D40B0134254F7C66254CB8
:1053C0003C660E0C93B2FFE7FFE7FFE73C6F6643D6
:1053D000360C7703BE467343DF0B5B04C01AB9413A
:1053E000130C7343DB18C91ACE086643360CB64457
:1053F00093B273431F0F1B01C01AB941130C7343BF
:105400001F0B1B05C01AB941860D8F023E43664330
:10541000360C092D24DB520A7243801A7703460AA0
:105420006643360C16235B1BDE40DF40BF19644623
:105430006643821B7046043506330100D940A840FC
:10544000C01900D30131A24206D20023F0BD0000F2
:10545000000000D0FFFFFFFF121B0130F3D3F1E784
:1054600009277F1BFE406446A2B27243801A00D215
:105470000139220C7243130C1204821A99410B0059
:105480007046043513370100F940A840801900D355
:105490000131002B02D1A2420AD2F0BD013000D36B
:1054A0000131121BFAD2013BF8D1A24200D2F0BD69
:1054B000013000D30131121BF7E7F0B51C0C00D00E
:1054C00080E00CB400251C0A04D11B02160E3343E5
:1054D000120208351C0B04D11B01160F33431201B5
:1054E00004359C0B04D19B00960F33439200023588
:1054F000DC0B02D192185B4101351C009718644106
:105500000134464F7C66464C3C660E0CFFE7FFE7D5
:10551000FFE7C0463C6F6643360C7703BE4697B242
:105520007743C01B00D20139C01B00D201399FB2A2
:105530007743C91BC91B170C77437E04FF0B801BE5
:10554000B941CE086643360C0C2D33DBB644120B42
:105550001F053A431B0B97B27743C01B00D201399A
:105560009FB27743C91B170C77433E043F0C801B47
:10557000B941860D8F023E43664329277F1BFE40BB
:105580000C3D7746AF40BF1930BCA2B2ABB27243FC
:105590007343801A9941220C7243130C1204801A2F
:1055A000994102000B000137001BA941F9D2781E76
:1055B0000021F0BD0C277F1BFE4077467F0BAF40DC
:1055C000FF19E0E700245D1C07D0144F7D663966A3
:1055D000FFE7FFE7FFE7FFE73C6F95B29EB2654349
:1055E0006643401BB141150C1E0C654366433604EF
:1055F0002F0C3E432D04401BB141994204D20200BE
:105600000B0020000021F0BD01D19042F7D3801A99
:10561000994101349942F2D3F6E70000000000D02E
:10562000FFFFFFFF48404140484018B41B4B5B68F8
:10563000FC46019308BD04DFEF58001018B4174B67
:105640001B68FC46019308BD00DFF9580010944622
:10565000134A926F920809D2624618B40F4BDB6866
:10566000FC46019308BD0CDFB15B00100C4AF0B59D
:10567000146E556E576F166F6246FFF7EEFF084ABD
:105680001466556657671667F0BD18B4034B9B68E0
:10569000FC46019308BD08DF555A0010B0150020E4
:1056A000000000D0FFB550404240504059404B40B0
:1056B000594000E0FFB5154F4C00640D03D0BC42CB
:1056C00004D10C0314D80020090D09055C00640DF9
:1056D00003D0BC4204D11C030AD800221B0D1B05B9
:1056E00001264B4009D44B4003D58B4200D1824266
:1056F000FFBD9942FCD19042FFBD0B43DB18034331
:105700001343F5D0C9434918FFBD0000FF0700004F
:1057100000B5FFF7CFFF804100BDC04600B5FFF7E1
:10572000C9FF01D9002000BD012000BD00B5FFF771
:10573000B9FF01D9002000BD012000BD00B5FFF771
:10574000B1FF804100BD012040054A00121804D875
:105750005A00121801D8002070470120704700201D
:10576000704700000021002805D17047C11748404C
:10577000401AFAD0C90713B5064B1B6898470CBCF2
:10578000441CA2401005120B0349091B09051943CB
:10579000114310BDB01700201F04000010B54C00CD
:1057A000620D8023D218DB00D21A5B057E2A10DD41
:1057B0009E3A13DACC170903490819435242D140E3
:1057C000640001341532202A05DAD04008436043D2
:1057D00010BD002010BD0846604310BDC80FC018A2
:1057E000013810BD18B4044B5B6AFC46019308BD38
:1057F00024DFDD5D00100000B015002070B513231C
:105800001C78012C0FD0012C0FDC022C02DC1D4A6D
:105810001D4B9A6470BD99001A481B4A8850013389
:105820001F2BF8D9EFE70023FAE71848FFF770FCC1
:1058300005001748FFF76CFC023803789B007F2BAC
:1058400019DD80222900104800F0B8FC022CDCD1C0
:10585000104B1A88B5231B029A4209D10E4B1A88A5
:105860000E4B9A4204D10E4B1A880E4B9A42CCD062
:105870000020FDF755FF0C4B0C4A30210C48FDF77A
:1058800031FFC046B5580010B01500205344000049
:105890005346000054380000D83800004946000044
:1058A0009C3800005946000048B40010ECB40010C9
:1058B000A8B4001007B56046002800D100BE0188DA
:1058C0000A0A0230DF2AFAD1C9B2820804D3028858
:1058D00040880004104300E00068024A50500390E2
:1058E00007BD0000B01500200FB403BC0CBCF0B520
:1058F0000124E407634000E0F0B50C0DCF0F661EF5
:105900003605891B640503D3C943404200D30131E6
:10591000640D03D0661CF60A07D0E41B00207F004C
:10592000791C89078912803C24031D0DDF0F6E1E30
:1059300036059B1B6D0503D3DB43524200D3013375
:105940006D0D03D06E1CF60A07D0ED1B00227F0000
:105950007B1C9B079B12803D2D032F1B661B58D47D
:10596000A446202E46DA20371400BC401D00BD405E
:10597000F24033412A4380185941CB0F05D0C94327
:10598000C043002264425041514162464D0D28D12E
:105990000D0D07D100281FD0241940414941013A7B
:1059A0000D0DF9D0640006D3013000D30131002C75
:1059B00001D140084000013A0BD4941CE40A04D100
:1059C00012051144DB071944F0BDD907204B1943D8
:1059D00000E0D9070020F0BD0029DDD1002CDBD18B
:1059E000F0BD0132C6074008CD0728434908002E04
:1059F000E1D0D9E73C2E29DA203E40371400BC40E4
:105A000000D00124F24014431A00BB401C43D317BA
:105A1000ACE7AC46202F08DA20360400B4400D0075
:105A2000B540F84039412843A5E73C2F0CDA203F28
:105A300040360400B44000D00124F840044308007C
:105A4000B1400C43C117EAE710001900002494E7A5
:105A50000000F07FF0B50C0D661E3605891BE60AC6
:105A60006405640D02D0651CED0A04D000200121FC
:105A70000905803C2403A4461C0D671E3F05DB1B63
:105A8000E70A6405640D02D0651CED0A04D000220B
:105A900001231B05803C24037740644497B484B2FF
:105AA00096B27443070C7E43150C6F4380B2684373
:105AB000361802D3012000043F183004350C0019B9
:105AC0007D41844688B29AB250430C0C62431F0C4D
:105AD0007C438EB27E43921902D301263604A41968
